:020000001B2CB7
:0C000600000000000000000000000800E6
:10001200243083120313FC00B530FD00FD0B0F28C2
:0A002200FC0B0F280000000008008E
:0E002C00533083120313FD00FD0B1A28080049
:10003A0083120313F801F9011030FC00710DF80D59
:10004A00F90D7408F8027508031C750FF9020318F4
:10005A0035287408F80775080318750FF90703108F
:0A006A00F00DF10DFC0B2328080037
:10007400831603139818402800003A2883120317A4
:0800840068080313990008004D
:10008C0083120317E81B4C2886114D288615681B14
:10009C005128061152280615E81A5628861057289A
:1000AC008614681A5B2806105C2806148316031342
:1000BC006F1863288312061665288312061286169B
:1000CC00032086120317E8196D2886116E288615F1
:1000DC0068197228061173280615E81877288610F7
:1000EC007828861468187C2806107D280614831638
:1000FC0003136F188428831206168628831206129F
:10010C0086160320861283166F1C8E2809208F28D2
:04011C0016200800A1
:1001200083120317E501630884000008E4006408F3
:10013000003A0319A6286408E8003A200317E50AE4
:0E0140006508630784000008E40097280800A3
:10014E00831603136F10831203176308E80046200B
:06015E0083166F14080077
:1001640083120313FB01FA01F901F801A001730DD5
:10017400F80D7408F8027508031C750FF902760867
:10018400031C760FFA027708031C770FFB020001A9
:10019400031C0130A002F30D0730FC00730DF80DB1
:1001A400F90DFA0DFB0DA00D7408731CEB28F80271
:1001B4007508031C750FF9027608031C760FFA0202
:1001C4007708031C770FFB020001031C0130A00217
:1001D400FC28F80775080318750FF9077608031843
:1001E400760FFA0777080318770FFB070001031847
:1001F4000130A007F30DFC0BD028720DF80DF90D9A
:10020400FA0DFB0DA00D7408731C1A29F802750869
:10021400031C750FF9027608031C760FFA0277089F
:10022400031C770FFB020001031C0130A0022B29E1
:10023400F80775080318750FF90776080318760F81
:10024400FA0777080318770FFB070001031801303A
:10025400A007F20D0730FC00720DF80DF90DFA0D30
:10026400FB0DA00D7408721C4929F8027508031CC3
:10027400750FF9027608031C760FFA027708031C3F
:10028400770FFB020001031C0130A0025A29F80772
:1002940075080318750FF90776080318760FFA071F
:1002A40077080318770FFB07000103180130A00734
:1002B400F20DFC0B2E29710DF80DF90DFA0DFB0D45
:1002C400A00D7408721C7829F8027508031C750FB8
:1002D400F9027608031C760FFA027708031C770FDD
:1002E400FB020001031C0130A0028929F8077508EC
:1002F4000318750FF90776080318760FFA077708BD
:100304000318770FFB07000103180130A007F10D54
:100314000730FC00710DF80DF90DFA0DFB0DA00D61
:100324007408711CA729F8027508031C750FF902DB
:100334007608031C760FFA027708031C770FFB027A
:100344000001031C0130A002B829F807750803183E
:10035400750FF90776080318760FFA07770803185C
:10036400770FFB07000103180130A007F10DFC0B08
:100374008C29700DF80DF90DFA0DFB0DA00D740804
:10038400711CD629F8027508031C750FF90276084A
:10039400031C760FFA027708031C770FFB02000197
:1003A400031C0130A002E729F80775080318750F2C
:1003B400F90776080318760FFA0777080318770FFA
:1003C400FB07000103180130A007F00D0730FC0003
:1003D400700DF80DF90DFA0DFB0DA00D7408701CCD
:1003E400052AF8027508031C750FF9027608031C28
:1003F400760FFA027708031C770FFB020001031C37
:100404000130A002162AF80775080318750FF907BA
:1004140076080318760FFA0777080318770FFB0797
:10042400000103180130A007F00DFC0BEA29701835
:10043400292A7408F80775080318750FF907760850
:100444000318760FFA0777080318770FFB070800DD
:1004540083120317E601053066020318382A66087A
:100464006507840020308000E60A2D2A66086507A7
:1004740084008001E60366086507E7000A30F4009B
:10048400F5016308F0006408F1001D207808F0000D
:100494007908F1003030F00703176708840070080A
:1004A40080000A30F400F5016308F0006408F100EC
:1004B4001D2070080317E3007108E4000030710682
:1004C400031D662A00307006031D692A6B2AE603A1
:0404D4003D2A0800B5
:0E04D800831203175C088A005B08820008008C
:1004E600831203137008F100F0010830FC00710854
:1004F600F40C0318822AFC0B7B2AF101003403104A
:10050600872AF40C0318F107F10CF00CFC0B842A73
:020516000800DB
:10051800373083120317E3009020DF0132305F0287
:100528000318ED2A871007148810081403138E0186
:100538008F010230FB004530FC00A930FD00FD0BA7
:10054800A32AFC0BA32AFB0BA32A000000000F0818
:10055800F000FF30F400732270080E07F40000303A
:100568000318013E7107F50074088316EB0075083F
:10057800EC007408F0007508F100F201F30120089E
:10058800F00721080318210FF10722080318220F8A
:10059800F20723080318230FF3077008A000710857
:1005A800A1007208A2007308A3007408831203173D
:1005B800E3007508E4004530E5002A22A430E30092
:1005C80090204530E3009020B030E3009020DF0A0F
:1005D800922A83160313200883120317E300831655
:1005E8000313210883120317E4004530E5002A228B
:1005F800B330E300902083160313200883120317F7
:10060800E3009020AD30E30090203230F400F50193
:10061800F601F701831603132008F0002108F10002
:100628002208F2002308F300B22070088316ED00B8
:100638007108EE00700883120317E3007108E400E4
:100648004530E5002A226A30E30090208316031320
:100658006D0883120317E30090203530E3009020E3
:100668000313210883166D02F00083122208031C6D
:10067800013E83166E02F10070088312B8007108FB
:10068800B90070080317E3007108E4004530E5007D
:100698002A222330E30090204530E30090203A30AE
:0606A800E30090200800B1
:1006AE00831203131A08F100981C5F2B18121816E8
:0606BE007108F0000800C5
:0E06C4000030831203138C1A0130F00008007E
:1006D2008316031398169030831298008316871797
:1006E200071383128C1E782B1A08F000722B080055
:1006F2008B2B803083120317DF009E2BC030DF006C
:100702009E2B9430DF009E2BD430DF009E2B803056
:10071200DF009E2B831203175F08013A03197A2B1D
:100722005F08023A03197F2B5F08033A0319822BF1
:100732005F08043A0319852B882B6003F0005F08D9
:10074200F0077008DF007008E800462083166F107B
:1007520083120317E201620861078400000803198B
:10076200BC2B6208610784000008E300A720831203
:0E0772000317E20AAC2B831603136F14080062
:100780006C228A110A128000840ADB0A0319DC0A2F
:08079000F003031DC02B08005B
:100798008316031386120612061086100611861198
:1007A8008312861206128611061186100610092079
:1007B80009200920861406148616032086120920AB
:1007C8008616032086120920861603208612092021
:1007D8000610861603208612092086160320861224
:1007E800861086158616032086120920861106149F
:1007F8008616032086120610861603208612092004
:1008080086160320861206148616032086120920EF
:1008180006108616032086128615061586140614F9
:0E082800861603208612092083166F1408001E
:10083600582683160313880183128801831607142A
:1008460083120710DF3083168500DF300317880018
:10085600943083128700AF30831603139700F0306D
:1008660003178500A0308312880032308900A73034
:10087600031390000D30FB00AF30FC00B630FD00D6
:10088600FD0B432CFC0B432CFB0B432C0000831667
:10089600860103178901CC230C3083120317E80065
:1008A60046200C300317E800462001300317DF000E
:1008B6000130E0004C30E10079231A30FB005E3055
:1008C600FC006E30FD00FD0B662CFC0B662CFB0B52
:1008D600662C0000013083120317E80046208316B9
:1008E60007138717813099001815692358300317A5
:1008F600E30090203330FB00BB30FC00DF30FD000E
:10090600FD0B832CFC0B832CFB0B832C00000000BF
:100916008C223330FB00BB30FC00DF30FD00FD0BCA
:10092600922CFC0B922CFB0B922C000000006223F5
:1009360070080319BF2C572370080317DD007008D1
:10094600313A031DB22C013083160313E90000303F
:10095600EA003D3083120317E3009020BF2C5D08A8
:10096600303A031DBF2C83160313E901EA01103048
:1009760083120317E30090200317871007148810CB
:10098600081403138E018F010230FB004530FC0072
:10099600A930FD00FD0BCD2CFC0BCD2CFB0BCD2C7B
:1009A600000000000F08F000FF30F400732270080A
:1009B6000E070317D80000300318013E7107D9004F
:1009C6008316031369086A0403191E2D831203177D
:1009D6005808E3005908E4005130E5002A22DB30CC
:1009E600E30090205130E3009020E330E3009020B4
:1009F600031338080317E300031339080317E40049
:100A06005130E5002A222B30E30090205130E300DC
:100A16009020E630E30090205A08E300E4015130CC
:100A2600E5002A222030E30090205130E300902098
:100A3600D830E300902083120313390803175902B4
:100A4600031D292D031338080317580203182E2DEA
:100A56000130DE002F2DDE015E08DA005E08831607
:100A660003133D060319402DBE01BF018312031770
:100A76005A0883160313BD00592D32303E07F10084
:100A86003F080318013EF2007108BE007208BF005D
:100A960000307202031D512D32307102031C592D94
:100AA600831203175A0883160313BB003B08031966
:100AB6006B2D3C08031D6B2DC03083120317E3001A
:100AC60090203130E8003A20CC300317E300902024
:100AD600831603133B08031D7F2D3C0803197F2D46
:100AE600CF3083120317E30090203030E8003A201D
:100AF600C9300317E3009020831603133B08BC009C
:040B06009A2C842D74
:100CB000213084004F3083120313F0008A30031771
:100CC000DB000530DC00C023A03084004330F0009E
:100CD000D9300317DB000530DC00C0231030831748
:100CE00084001030F00033300317DB000630DC00E6
:100CF000C0238313E33084000330F0005430031723
:100D0000DB000630DC00C02320308317840017305E
:100D1000F0001C300317DB000630DC00C023831317
:100D2000E63084000330F00051300317DB0006305A
:100D3000DC00C0233730831784000E30F0004330CE
:0E0D40000317DB000630DC00C023831308001D
:040B14006434003411
:100B1800433461346C346934623420347434683456
:100B280072346534733468346F346C3464343A34F2
:040B38002034003431
:060B3C000D340A34003400
:040B42000034003447
:060B46000D340A340034F6
:100B4C00533465346E346434203465346E3461341B
:0E0B5C0062346C34653464340D340A34003471
:100B6A004E3461346D346D346F3420344E34613414
:080B7A006D346D346F3400345A
:100B8200463472346F346D342034503469346334F3
:100B92002034573469347434683420344C34753416
:040BA2007634003471
:0C0BA6004134763467343A342034003493
:080BB20000340034003400346B
:100BBA00533461346D3470346C3465343A342034CF
:020BCA000034F5
:060BCC000D340A34003470
:060BD2000D340A3400346A
:100BD80054346F34743461346C343A34203400340F
:020BE8000034D7
:020BEA000034D5
:020BEC000034D3
:040BEE00003400349B
:100BF2007334743461347434753473340D340A3498
:020C02000034BC
:060C04000D340A34003437
:060C0A000D340A34003431
:100C10007334743461347434753473340D340A3479
:020C200000349E
:060C22000D340A34003419
:100C2800763461346C34753465340D340A340034E8
:100C380072346134773454346F34753463346834BF
:060C48003A3420340034B0
:100C4E007434683472346534733468346F346C348D
:080C5E0064343A342034003400
:100C6600533465346E3464342034643469347334F4
:100C7600613462346C34653464340D340A340034BF
:100C8600433461346C3469346234203473347434DC
:0C0C96006134723474340D340A340034BC
:060CA2000D340A34003499
:060CA8000D340A34003493
:04400E00F22F000786
:00000001FF
