:02000000E42BEF
:1000060083120313F801F9011030FC00710DF80D8D
:10001600F90D7408F8027508031C750FF902031828
:100026001B287408F80775080318750FF9070310DD
:0A003600F00DF10DFC0B0928080085
:10004000831603139818262800002028831203170C
:080050004C080313990008009D
:1000580083120317CA0105304A0203183A284A08CE
:100068004907840020308000CA0A2F284A08490717
:1000780084008001CA034A084907CB000A30F4000B
:10008800F5014708F0004808F10003207808F0005F
:100098007908F1003030F00703174B088400700826
:1000A80080000A30F400F5014708F0004808F10024
:1000B800032070080317C7007108C80000307106D4
:1000C800031D682800307006031D6B286D28CA03BD
:0400D8003F280800B5
:1000DC00831203131A08F100981C762818121816AC
:0600EC007108F00008009D
:1000F20083120317C901470884000008C800480892
:10010200003A03198F284808CC0020200317C90A97
:0E0112004908470784000008C800802808003C
:0E0120008312031735088A0034088200080095
:10012E00831203137008F100F0010830FC0071080F
:10013E00F40C0318A628FC0B9F28F10100340310C1
:10014E00AB28F40C0318F107F10CF00CFC0BA828EB
:02015E00080097
:0E0160000030831203138C1A0130F0000800E7
:10016E0083120313FB01FA01F9018030F800F10C40
:10017E00F00C031CCB287408F90775080318750FCB
:10018E00FA070318FB0A0310F01FD3287408FA07A6
:10019E0075080318750FFB07FB0CFA0CF90CF80C1D
:1001AE00031CBE287B08F3007A08F2007908F100E0
:0601BE007808F0000800C3
:1001C40083120313FB01FA01F901F801A001730D75
:1001D400F80D7408F8027508031C750FF902760807
:1001E400031C760FFA027708031C770FFB02000149
:1001F400031C0130A002F30D0730FC00730DF80D51
:10020400F90DFA0DFB0DA00D7408731C1B29F802DF
:100214007508031C750FF9027608031C760FFA02A1
:100224007708031C770FFB020001031C0130A002B6
:100234002C29F80775080318750FF90776080318B1
:10024400760FFA0777080318770FFB0700010318E6
:100254000130A007F30DFC0B0029720DF80DF90D08
:10026400FA0DFB0DA00D7408731C4A29F8027508D9
:10027400031C750FF9027608031C760FFA0277083F
:10028400031C770FFB020001031C0130A0025B2951
:10029400F80775080318750FF90776080318760F21
:1002A400FA0777080318770FFB07000103180130DA
:1002B400A007F20D0730FC00720DF80DF90DFA0DD0
:1002C400FB0DA00D7408721C7929F8027508031C33
:1002D400750FF9027608031C760FFA027708031CDF
:1002E400770FFB020001031C0130A0028A29F807E2
:1002F40075080318750FF90776080318760FFA07BF
:1003040077080318770FFB07000103180130A007D3
:10031400F20DFC0B5E29710DF80DF90DFA0DFB0DB4
:10032400A00D7408721CA829F8027508031C750F27
:10033400F9027608031C760FFA027708031C770F7C
:10034400FB020001031C0130A002B929F80775085B
:100354000318750FF90776080318760FFA0777085C
:100364000318770FFB07000103180130A007F10DF4
:100374000730FC00710DF80DF90DFA0DFB0DA00D01
:100384007408711CD729F8027508031C750FF9024B
:100394007608031C760FFA027708031C770FFB021A
:1003A4000001031C0130A002E829F80775080318AE
:1003B400750FF90776080318760FFA0777080318FC
:1003C400770FFB07000103180130A007F10DFC0BA8
:1003D400BC29700DF80DF90DFA0DFB0DA00D740874
:1003E400711C062AF8027508031C750FF9027608B9
:1003F400031C760FFA027708031C770FFB02000137
:10040400031C0130A002172AF80775080318750F9A
:10041400F90776080318760FFA0777080318770F99
:10042400FB07000103180130A007F00D0730FC00A2
:10043400700DF80DF90DFA0DFB0DA00D7408701C6C
:10044400352AF8027508031C750FF9027608031C97
:10045400760FFA027708031C770FFB020001031CD6
:100464000130A002462AF80775080318750FF9072A
:1004740076080318760FFA0777080318770FFB0737
:10048400000103180130A007F00DFC0B1A2A7018A4
:10049400592A7408F80775080318750FF9077608C0
:1004A4000318760FFA0777080318770FFB0708007D
:1004B400B020700803197B2A6E2070080317C3004C
:1004C40070080A3A031D6B2A013083160313E400F3
:1004D4007B2A831603130B30630203187B2A6308F9
:1004E400363E8400831203174308800083160313E7
:1004F400E30A831664080319F62A6308363E840067
:100504008001E4016B08031DF32A0A306302031C13
:10051400F32A831203173608543A031DF32A3708C3
:10052400483A031DF32A3808523A031DF32A3F08B8
:100534003A3A031DF32AC401C5010A30C6008316E2
:10054400031363088312031746020318D42A4608C8
:10055400363E840030300002031CD42A4608363E5E
:1005640084000008393C031CD42A4408F0004508E0
:10057400F1000A30F4000030F500B72003174608F4
:10058400363E840030300002F200F301031CF30312
:1005940072087007C40071080318013E7307C50090
:1005A400C60AA12A4508003C031DDA2A4408643C13
:1005B4000318F32A13304502031DE22A883044024B
:1005C4000318F32A440883160313E900831203175C
:1005D400450883160313EA00543083120317CC0032
:0A05E400202003138316E301080032
:1005EE00013083160313EB00E501E601E701E80194
:1005FE00103083120317C7007920C3013230430233
:10060E000318602B871007148810081403138E012B
:10061E008F010230FB004530FC00A930FD00FD0BC0
:10062E00162BFC0B162BFB0B162B000000000F08D5
:10063E00F000FF30F400972070080E07F400003031
:10064E000318013E7107F50074088316EE00750855
:10065E00EF007408F0007508F100F201F30165086F
:10066E00F00766080318660FF10767080318670F8F
:10067E00F20768080318680FF3077008E5007108A1
:10068E00E6007208E7007308E80074088312031787
:10069E00C7007508C8001E30C9002C206330C70083
:1006AE0079201E30C70079206030C7007920C30A38
:1006BE00052B83160313650883120317C7008316D1
:1006CE000313660883120317C8001E30C9002C20BE
:1006DE005030C70079201E30C70079204D30C7003A
:1006EE0079203230F400F501F601F7018316031379
:1006FE006508F0006608F1006708F2006808F3006C
:10070E00E22070088316EC007108ED007008831269
:10071E000317C7007108C8001E30C9002C202430F2
:10072E00C70079201E30C70079202130C7007920FC
:10073E000313350883166C02F00083123608031C6F
:10074E00013E83166D02F1007008E9007108EA009F
:10075E00700883120317C7007108C8001E30C90045
:10076E002C203B30C70079201E30C700792038304E
:10077E00C700792083160313EB0101308312B700F3
:02078E00080061
:1007900090208A110A128000840AB40A0319B50A4B
:0807A000F003031DC82B080043
:1007A80083160313981690308312980083168717C0
:1007B800071383128C1EE32B1A08F000DD2B0800A8
:1007C800CA25831603138801831288018316071428
:1007D80083120710DF3083168500DF300317880087
:1007E800943083128700AF30831603139700F030DC
:1007F80003178500A0308312880032308900A730A3
:10080800031390000D30FB00AF30FC00B630FD0044
:10081800FD0B0C2CFC0B0C2CFB0B0C2C000083167A
:10082800860103178901031307138717813099007D
:100838001815D423A0300317C70079203330FB00E4
:10084800BB30FC00DF30FD00FD0B282CFC0B282CF6
:10085800FB0B282C00000000F7223330FB00BB30D4
:10086800FC00DF30FD00FD0B372CFC0B372CFB0B9D
:10087800372C000000008316D50A5508053C0318DC
:10088800462CD50104305502031C5A2C5A2202303A
:10089800FB004530FC00A930FD00FD0B512CFC0B82
:1008A800512CFB0B512C00000000192D831203174B
:1008B800871007148810081403138E018F01023063
:1008C800FB004530FC00A930FD00FD0B692CFC0B3A
:1008D800692CFB0B692C000000000F08F000FF30AA
:1008E800F400972070080E070317AA0000300318B9
:1008F800013E7107AB00831603135508023C031C25
:10090800BB2CCB3083120317C70079202C08C700F3
:10091800C8012D30C9002C202D30C7007920E130C6
:10092800C7007920D630C7007920831603136908D9
:1009380083120317C700831603136A088312031769
:10094800C8002D30C9002C202D30C7007920C930AF
:10095800C70079202A08C7002B08C8002D30C90015
:100968002C202D30C7007920B230C700792083169B
:1009780003136A08831203172B02031DC92C83165D
:1009880003136908831203172A020318CE2C0130B7
:10099800C200CF2CC2014208AC00420803136E0605
:1009A8000319DD2CEC01ED0103172C080313EE00ED
:1009B800F42C32306C07F1006D080318013EF20088
:1009C8007108EC007208ED0000307202031DEE2C75
:1009D80032307102031CF42C03172C080313EF00A8
:1009E80083165508023C031C142D83126F08031943
:1009F800062D83164808031D062DBE3083120317E3
:100A0800C7007920831203136F08031D142D831662
:100A180048080319142DB43083120317C70079202E
:0E0A2800831203136F088316C8003F2C1A2D8B
:100B9400213084004B3083120313F00020300317FC
:100BA400B4000530B500C823A03084001230F00032
:100BB400A3300317B4000530B500C8236C3084009B
:100BC4000330F000C3300317B4000530B500C82368
:100BD400B23084000230F000C6300317B400053090
:100BE400B500C8236F3084000130F000C83003170B
:100BF400B4000530B500C823B43084003830F000A8
:100C04006B300317B4000530B500C82310308317C8
:100C140084000E30F000B5300317B4000530B50081
:060C2400C8238313080041
:060A40000D340A340034FD
:100A46004134763467342034633461346C3463342F
:100A560075346C3461347434653464343A34203417
:020A660000345A
:040A680064340034BE
:020A6C00003454
:060A6E000D340A340034CF
:100A7400463469346E3461346C34203474346834EC
:100A840072346534733468346F346C3464343A3497
:040A940020340034D6
:060A98000D340A340034A5
:100A9E0054346F34743461346C34203473346134B0
:100AAE006D3470346C34653473343A34203400341D
:060ABE000D340A3400347F
:100AC400533461346D3470346C3465343A342034C6
:020AD4000034EC
:100AD6007334743461347434753473340A34303492
:040AE6000A3400349A
:100AEA007334743461347434753473340A3431347D
:040AFA000A34003486
:020AFE000034C2
:040B00000A3400347F
:100B040052346134773454346F3475346334683414
:040B14003A3400343B
:020B18000034A7
:100B1A005434683472346534733468346F346C34E2
:060B2A0064343A3400348B
:040B30000A3400344F
:020B340000348B
:020B3600003489
:080B38000034003400340034E5
:040B40000034003449
:020B440000347B
:100B4600463472346F346D3420345034693463342F
:100B56002034573469347434683420344C34753452
:040B660076340034AD
:100B6A00433461346C3469346234203473347434F9
:0C0B7A006134723474340D340A340034D9
:040B86000034003403
:020B8A00003435
:040B8C000A340034F3
:020B900000342F
:04400E00F22F000786
:00000001FF
